:040000000C94F0006C
:100004000C9400000C9400000C9400000C9400006C
:100014000C9400000C9400000C9400000C9400005C
:100024000C9400000C9400000C9447010C94000004
:100034000C941D010C9400000C9400000C9400001E
:100044000C9400000C9400000C9400000C9400002C
:100054000000000000000100000000006666564138
:10006400633738392A2F613435362D6D28313233D0
:100074002B7029302E3D2B6E000000000000000084
:10008400000000000000000000000000000000006C
:10009400000000000000000000000000000000005C
:1000A400000000000000000000000000000000004C
:1000B400000000000000000000000000000000003C
:1000C400000000000000000000000000000000002C
:1000D400000000000000000000000000000000001C
:1000E400000000000000000000000000000000000C
:1000F40000000000000000000000000000000000FC
:1001040000000000000000000000000000000000EB
:1001140000000000000000000000000000000000DB
:1001240000000000000000000000000000000000CB
:1001340000000000000000000000000000000000BB
:1001440000000000000000000000000000000000AB
:10015400000000000000000000000000000000009B
:10016400000000000000000000000000000000008B
:10017400000000000000000000000000000000007B
:100184000000000001003D002025362E32660025C7
:10019400660025312E3166006F6B004552524F5276
:1001A400000001002D4E414E00494E46000080C023
:1001B4002D4E414E000001000200540009000400CD
:1001C400560004006002600018008E026400010002
:1001D400B002A6010200B402B2010000F894EE27B6
:1001E400ECBBF1E0FBBFEBBFE5BF8DE0A2E0BB27BA
:1001F400ED938A95E9F780E098E0A0E6ED93019706
:10020400E9F7EAEBF1E085919591009761F0A5910A
:10021400B59105901590BF01F00105900D920197DD
:10022400E1F7FB01F0CFEFE5EDBFE8E0EEBFC0E69C
:10023400D2E00C946201AA93EA93FA93EFB7EA939B
:100244001A930A931BB10CB1E12FEC71B1F4EC2DAC
:10025400C394F0E0EA55FD4F0083E8E0EC1509F49F
:10026400CC24A091AF02AF5FA093AF02A83029F4D1
:10027400E0E0E093AF02689420F809911991E991C4
:10028400EFBFF991E991A9911895AA93BA93EA93CA
:10029400FA93EFB7EA93ACE8B2E00E94470DA0915D
:1002A4008C02B0918D02A53FE1E0BE0714F00E94DC
:1002B4004D0DE991EFBFF991E991B991A991189583
:1002C400E0E0EABBEBBBECE3E7BBE0E0E8BBE4BBAC
:1002D400EFE3E5BBEFEFE1BBE0E0E2BBEBE0E3BF64
:1002E400E0E0E2BFECE7ECBFE0E0EFBDEEBDEDBD6A
:1002F400ECBDE7BDE6BDEBBDEABDE9BDE8BDE2BDD1
:10030400E5BDE4BDE3BDE1E0E9BFE0E0E5BFE4BF96
:10031400EBB9E8E9EAB9E6E8E0BDE0E0E0BDE3E333
:10032400E9B9E0E8E8B9E0E0E0BFE6B9EDB9E6BF75
:10033400A0E10E9453097894062C072809F042C0D2
:1003440050D0DE2EEDE3ED1549F0E3E6ED1531F086
:10035400EAE3ED1518F0E8E2DE1618F4E1E6ED152F
:1003640089F4F201E859FD4FD082F201E759FD4FBB
:10037400A0E0A083E3E1F0E04E165F061CF4F20176
:1003840031962F01E3E6ED1509F42BD1EDE3ED15DC
:10039400C1F4E1E0F0E03F0157D1E0936002F09353
:1003A400610260936202709363020E94530DE093B2
:1003B4006402F093650260936602709367020E9480
:1003C400030917D1E1E0F0E0E615F70541F409D09F
:1003D400DE2EE33619F405D1662477240AD1ACCF96
:1003E400FFCF0E94B71200E010E020E030E00A2CBA
:1003F4000B2809F0E8C0E1E0F0E0E815F905A9F5FB
:100404009298939A949A959A00E010E0989905C06E
:100414000E945C0D0E94620DE0C0999905C00E9483
:100424006D0D0E94620DD9C09A9905C00E94730D8A
:100434000E94620DD2C09B9905C00E94790D0E9452
:10044400620DCBC09C9905C00E947F0D0E94620D75
:10045400C4C09D9905C00E94850D0E94620DBDC057
:10046400E2E0F0E04F01EFEFB8C0E2E0F0E0E815C1
:10047400F905A9F5929A9398949A959A01E010E057
:10048400989905C00E945C0D0E94620DA6C09999BE
:1004940005C00E946D0D0E94620D9FC09A9905C00F
:1004A4000E94730D0E94620D98C09B9905C00E9422
:1004B400790D0E94620D91C09C9905C00E947F0D28
:1004C4000E94620D8AC09D9905C00E94850D0E94FC
:1004D400620D83C0E3E0F0E04F01EFEF7EC0E3E0A4
:1004E400F0E0E815F905A9F5929A939A9498959AEB
:1004F40002E010E0989905C00E945C0D0E94620D14
:100504006CC0999905C00E946D0D0E94620D65C072
:100514009A9905C00E94730D0E94620D5EC09B995A
:1005240005C00E94790D0E94620D57C09C9905C0B8
:100534000E947F0D0E94620D50C09D9905C00E94CB
:10054400850D0E94620D49C0E4E0F0E04F01EFEF39
:1005540044C0E4E0F0E0E815F905A9F5929A939A0D
:10056400949A959803E010E0989905C00E945C0D58
:100574000E94620D32C0999905C00E946D0D0E94BF
:10058400620D2BC09A9905C00E94730D0E94620DE2
:1005940024C09B9905C00E94790D0E94620D1DC064
:1005A4009C9905C00E947F0D0E94620D16C09D9902
:1005B40005C00E94850D0E94620D0FC0E1E0F0E0CD
:1005C4004F01EFEF0AC0A0918C02B0918D02AB3FB6
:1005D400E0E0BE0714F0AA24BB240E94BE122496B5
:1005E4000895E0E0E0936802442455240E9403093E
:1005F4000895062C072849F4E0E0EA93A0E00E945D
:10060400F208A8E6B2E00E943109E1E0F0E0E61564
:10061400F705C9F4E0E0EA93A0E00E94F208AAE832
:10062400B1E00E944009ECE7F2E0FA93EA93ECE8C7
:10063400F1E0FA93EA930E94530D0E948B0DACE70C
:10064400B2E00E9431090895E697D1508EE091E01E
:10065400A8E2B0E0ECE7F0E00E94C3120E94B512F9
:1006640001E010E020E030E041E050E00E94920D13
:100674000E94990D0E949D0D08F09EC00E94A60D37
:10068400A081AB3251F0AD3241F0AA3231F0AF3239
:1006940021F0A83211F0A932C1F40E94AF0DAE0FBF
:1006A400BF1F0E94A60DE081EC930E94AF0DEA0FDC
:1006B400FB1F3196A0E0A0830E94990D31970E9400
:1006C4009D0D10F40E94BB0D74C00E94A60DA08164
:1006D400AA3310F4A03318F4A081AE32B9F50E9405
:1006E400AF0D0E94BF0D0E94A60DE081EC93DE01C8
:1006F400AE5CBE4F0E94470D0E94990D0E94CA0D28
:100704001196AE17BF0708F50E94D10DE759FD4FAA
:10071400A081AA3310F4A03318F4A081AE3209F4F6
:1007240014C00E94AF0D0E94BF0DE0E0EC930E9444
:10073400990D31970E949D0D10F40E94BB0DE0E0CD
:10074400DE01AE5CBE4FED93EC9333C00E94A60D68
:10075400A081A13671F50E94AF0D0E94D80D0E94B0
:10076400DD0DE0916402F091650260916602709182
:1007740067020E948B0D0E94E20D0E9416120F0167
:10078400DE01A855BF4FEA0FFB1FFF93EF93F00163
:100794000E94E90D0E9493083197AF91BF910E9486
:1007A400EF0D0E94990D31970E949D0D10F40E9447
:1007B400BB0D0E94F40D5CCFFE01EC5CFE4F219159
:1007C4003081F9010E94F80DE0E0EC93E1E0F0E003
:1007D400E017F10709F0ABC100E010E00E94920DB0
:1007E4000E94FC0D94F00E94000EAC91A93251F4C9
:1007F40001E010E00E94D10DDE01A25DBE4FED9339
:10080400FC9303C00E94F40DEBCFFE01EA5CFE4FA3
:1008140021933083DE01A95CBE4FAC91AA230AF177
:100824000E94000EAC91A83229F40E94040E0E948A
:100834009D0D0CF00DC00E94D10DDE01A05DBE4FD8
:10084400ED93FC930E940B0E3297EEA7FFA709C00D
:10085400DE01AA5CBE4FED91FD913197FE93EE93BC
:10086400D9CF0E94920D0E940B0E31970E949D0DCC
:100874009CF40E94150E0E94D80D0E941B0E0E942B
:10088400220EEA0FFB1F31960E94290EA8E00E9457
:10089400AC080E94F40DE7CFE1E0F0E0E017F107C7
:1008A40009F03DC1E1E0F0E0E417F50709F079C093
:1008B40040E050E00E94920D0E942F0E0CF470C094
:1008C4000E94150EAE0FBF1FAC91AA3241F50E94D3
:1008D400350E7F936F93FF93EF930E94410EAF9178
:1008E400BF918F919F910E944B0E0E945A0E0E94BD
:1008F400670E0E946E0E0E94740E0E947F0E54F0CA
:100904000E948A0E0E94910EA8E00E94AC080E94E8
:10091400BB0DF3CF0E94970E0E949F0E41C00E9410
:10092400150EAE0FBF1FAC91AF32A1F50E94350E6C
:100934007F936F93FF93EF930E94410EAF91BF910A
:100944008F919F910E94A50E0E94410E0E94B112A8
:1009540019F40E94AF0E24C00E94B70E0E94670EC5
:100964000E946E0E0E94BD0E0E947F0E54F00E94E3
:100974008A0E0E94910EA8E00E94AC080E94BB0D52
:10098400F3CF0E94C80EDE01D0960E94EF0D0E94A4
:100994009F0E06C00E94CD0E19F00E94F40D8CCF5C
:1009A40081CF0E94D50E09F078C00E94DD0E0E940E
:1009B4002F0E0CF471C00E94150EAE0FBF1FAC9128
:1009C400AB3251F50E94E40E0E94EC0E7F936F93BC
:1009D400FF93EF930E94410EAF91BF918F919F912E
:1009E4000E94F60E0E94B70E0E94670E0E946E0EC1
:1009F4000E94BD0E0E947F0E54F00E948A0E0E9437
:100A0400910EA8E00E94AC080E94BB0DF3CF0E9497
:100A1400970E0E949F0E40C00E94150EAE0FBF1F7E
:100A2400AC91AD3239F4DE01D096EA0FFB1FA181FF
:100A3400A03009F02EC00E94E40EACE9B1E00E949F
:100A440040090E94EC0E7F936F93FF93EF930E94F3
:100A5400410EAF91BF918F919F910E94000F0E9410
:100A6400B70E0E94670E0E946E0E0E94BD0E0E9479
:100A74007F0E54F00E948A0E0E94910EA8E00E94FC
:100A8400AC080E94BB0DF3CF0E94970E0E949F0EEC
:100A940003C00E94F40D8BCF84CF0E94CD0E09F4C5
:100AA40046C00E940C0F0E94130FFE01F296FA93A7
:100AB400EA93A8E00E94AC080E940B0E2E1B3F0B89
:100AC4000E940C0F0E94190F0E94FC0DD4F00E948A
:100AD400D10D0E94130F0E94220E0E940C0FEA1BDC
:100AE400FB0BDE01A85CBE4F0D90BC91A02DEA0F5C
:100AF400FB1F0E94290EA8E00E94AC080E94F40D7E
:100B0400E3CFF9010E94190F0E94CA0D1F973CF40C
:100B14000E94000EE0E0EC930E94F40DF5CF0E94D9
:100B2400CD0E29F041E050E00E94E40E4FCEE1E00A
:100B3400F0E0E417F50709F083C040E050E00E94BC
:100B4400920D0E94FC0D0CF47AC00E94000EAC9130
:100B5400AA3281F50E94200F0E948A077F936F9327
:100B6400FF93EF930E94270F0E948A07AF91BF91D2
:100B74008F919F910E944B0E0E94DD0D0E94290FC0
:100B84000E94320F0E946E0E0E94740E0E94350F56
:100B940054F00E943E0F0E94410FA8E00E94AC084E
:100BA4000E94BB0DF3CF0E94C80E0E94E90D0E9463
:100BB400430F45C00E94000EAC91AF32D1F50E94A4
:100BC400200F0E948A077F936F93FF93EF930E94F5
:100BD400270F0E948A07AF91BF918F919F910E9426
:100BE400A50E0E94270F0E948A070E94B11219F4D1
:100BF4000E94AF0E24C00E94480F0E94290F0E9439
:100C0400320F0E946E0E0E94BD0E0E94350F54F0EA
:100C14000E943E0F0E94410FA8E00E94AC080E946F
:100C2400BB0DF3CF0E94C80E0E94E90D0E94430F32
:100C340006C00E94CD0E19F00E94F40D82CF77CF2A
:100C44000E94D50E09F081C00E94DD0E0E94FC0DA9
:100C54000CF47AC00E94000EAC91AB3291F50E9464
:100C6400E40E0E944E0F0E948A077F936F93FF93B6
:100C7400EF930E94270F0E948A07AF91BF918F9133
:100C84009F910E94F60E0E94480F0E94290F0E9415
:100C9400320F0E946E0E0E94BD0E0E94350F54F05A
:100CA4000E943E0F0E94410FA8E00E94AC080E94DF
:100CB400BB0DF3CF0E94C80E0E94E90D0E94430FA2
:100CC40043C00E94000EAC91AD3241F4DE01A85540
:100CD400BF4FEA0FFB1FA181A03009F032C00E9470
:100CE400E40E0E944E0F0E948A077F936F93FF9336
:100CF400EF930E94270F0E948A07AF91BF918F91B3
:100D04009F910E94000F0E94480F0E94290F0E9489
:100D1400320F0E946E0E0E94BD0E0E94350F54F0D9
:100D24000E943E0F0E94410FA8E00E94AC080E945E
:100D3400BB0DF3CF0E94C80E0E94E90D0E94430F21
:100D440003C00E94F40D82CF7BCFDE01A855BF4FB4
:100D54000E948A07EE83FF83688779870E941B0EAF
:100D6400309729F4EE81FF81688579850CC039DCE0
:100D7400AFE9B1E00E944009A0EDB7E00E9457102E
:100D840030DC662477240E94BC12EC96DF5F089561
:100D94000E94530FE0E0EA83EFE3EB831A930A9394
:100DA400EB85FC85EF3FAFEFFA0739F40E945A0F49
:100DB400A8EAB1E00E948608A7C0EF3FAFE7FA07B0
:100DC40039F40E945A0FA9EAB1E00E9486089CC037
:100DD400AC85AA2362F4E985FA856B857C850E943B
:100DE40061100E945F0F0E94640FEDE2EC93A885EE
:100DF400A73010F0E6E0E8871885E12F1150E030C5
:100E040039F00E946B0F0E94700F0E94770FF5CF8C
:100E14000E947C0F0E9407110E945F0F10E00E9445
:100E2400850F0E94770F0E947C0F0E94EA1188F0C0
:100E34000E946B0F0E948A0F0E94770F1F5F173268
:100E440038F00E945A0FADEAB1E00E9486085CC0F7
:100E5400EACF103029F40E94640FE0E3EC9329C038
:100E6400E12F1150E03029F10E946B0F0E94700FA6
:100E74000E94910FDF01CB010E94300D0E94770F79
:100E84000E947C0F0E94A5110E9494100E2F0E94B4
:100E9400640FE02FE05DEC93E02FF0E00E946B0F15
:100EA4000E94980F0E9457110E949D0F0E94A20F4A
:100EB400D7CFE885E03021F10E94640FEEE2EC9395
:100EC400E885E150E887EF5FD9F00E949D0F0E940A
:100ED4008A0F0E945F0FE985FA856B857C850E94E5
:100EE40094100E2F0E94640FE02FE05DEC93E02F2E
:100EF400F0E00E949D0F0E94980F0E94A20FE0CF85
:100F0400AE81BF81E0E0EC93198108812D960895AC
:100F1400BA93AA932A970E94B512E0E0E887E9877A
:100F2400EA87EB87A889B989EC915E2FAE2F0E94DE
:100F3400F40CE03031F0E889F9893196E88BF98BCB
:100F4400F1CFE0E0EF835B3221F05D3239F4E1E090
:100F5400EF83E889F9893196E88BF98BE0E04E2F2D
:100F64005E2F08891989A889B989AC910E94EB0C74
:100F7400E03049F4A889B989AC91EEE20E942812C4
:100F84005E2FE03039F0452BE889F9893196E88BFA
:100F9400F98BE9CF28893989403029F1E889F98921
:100FA4003197E88BF98BA889B989AC91AE32D9F025
:100FB400A889B989EC91F0E0F0970E94A70F0E94EC
:100FC400980F0E940711DF01CB01E0E0F0E060E23E
:100FD40071E40E94A5110E94AC0FE889F989319748
:100FE400E88BF98BE0CF0E94B10FA889B9891197DA
:100FF400A88BB98BA017B107A0F0EC91F0E0F097A3
:101004000E94B70F0E94980F0E9457110E94A70FC9
:101014000E9407110E94AC0F0E94BC0F0E94BE0FD9
:10102400E4CFD9012F5F3F4F5C91553619F0553409
:1010340009F057C0E0E04E2FEE83D9015C915B329A
:1010440021F05D3221F4E1E0EE832F5F3F4FD901BF
:101054002F5F3F4FEC915E2FAE2F0E94EB0CE030E0
:1010640039F0AAE04A02F001E50FE0534E2FEFCF2A
:10107400473268F0EF81E03029F0EFEFFFEF6FE7E0
:101084007FEF3EC0EFEFFFEF6FE77FE739C050E23D
:101094000E94B10F503089F00E94C30F0E94B70F15
:1010A4000E9457110E94BE0FE42FE52321F00E94F5
:1010B400BC0F0E94BE0F5695EDCFEE81E03039F0A3
:1010C4000E94C30F0E94A70F0E94A51106C00E9490
:1010D400C30F0E94A70F0E945711E887F9876A87F8
:1010E4007B87EF81E03041F0E885F9856A857B856F
:1010F4000E9461100E94AC0FE885F9856A857B85A2
:101104000E94BC1262960895BA93AA93E991F99148
:10111400A991B991CD0105900D920020E1F7FC0150
:101124000895BA93AA93A991B991EE27FF276D91D7
:10113400662311F03196FBCF0895BA93AA93AA2798
:10114400BB27E991F9910590002011F01196FBCF8E
:10115400FD010895AA937991E991F991A991B99121
:10116400CD01772351F07A9561916D936623C9F788
:10117400772319F07A956D93FBCFFC010895AA9318
:10118400E881E07111F0C39A01C0C398E881E0726C
:1011940011F0C49A01C0C498E881E07411F0C59AB2
:1011A40001C0C598E881E07811F0C69A01C0C698DC
:1011B4008DE08A95F1F7C29A8DE08A95F1F7C2988D
:1011C4008DE08A95F1F79BC0AA93A881D8DFE881C6
:1011D400E295E883A881D3DF85E88A95F1F78FC08B
:1011E400AA93E881F0E0EC54FD4FE081A981AE0FB1
:1011F400EBDFE981E093B802E881E093B90222963B
:101204000895A2E00E94C80FACE0DEDFA1E00E94D6
:10121400C80FE0E0E093B902E093B8020895AA93FE
:10122400A881AA3031F0E091BA02A091B802AE17B9
:1012340060F0E0E0EA93A091B902AF5FA093B90235
:10124400CFDFA881AA3009F45AC0E091B802EF5F59
:10125400E093B802C09AA881B7DFC09850C0BA938F
:10126400AA931A93A981BA81ED91A983BA831E2FF7
:10127400E03019F0A12FD3DFF5CF10C0BA93AA93B1
:101284001A93E981FA813196E983FA833197E491DB
:101294001E2FE03019F0A12FC2DFF3CF188123965F
:1012A4000895AA93BB9ABC9ABD9ABE9ABA9AB89A60
:1012B400B99AC298C098C198E881E093BA02E058FC
:1012C400E093B602E881E054E093B702A4E1B0E011
:1012D4000E9457100E94CE0F0E94CE0F0E94CE0F84
:1012E400A0E24DDF88EC90E00197F1F7A8E26CDF13
:1012F400A4E06ADFA5E868DFA6E066DF82DF219666
:101304000895BA93AA931A930A93AA81BB81129659
:101314000E948112309729F1AA81BB8114960E9400
:1013240081128F01309761F00230E0E01E0780F0F7
:10133400F80131978F01AA81BB811496ED93FC9338
:10134400AA81BB8112960E94470D3197AC81A0837C
:10135400AA81BB810E948112FF2312F00E94470DD3
:1013640006C0AA81BB81EFEFFFEFED93FC931981D7
:101374000881259608950E94530FE0E8EA83EFE37D
:10138400EB830E94B712EE85FF85EF3FAFEFFA07BC
:1013940049F4E885F985FA93EA93A4EBB1E00E9455
:1013A4008608C5C0EF3FAFE7FA0749F4E885F98539
:1013B400FA93EA93A5EBB1E00E948608B8C0AB8526
:1013C400A73010F0E6E0EB871B85E12F1150E030E9
:1013D40029F00E94D60F0E94DB0FF7CF0E94C30FA3
:1013E4000E94B11231F430E00E94D60F0E94DB0F4C
:1013F40033C03B850E94E00F09F008F410C00E943E
:10140400D60F0E94DB0F0E94E00F40F00E94B70F3E
:101414000E94700F0E94BE0F3F5FF5CF0DC00E9467
:10142400E00F30F40E94BC0F0E94BE0F3150F7CF82
:101434000E94D60F0E94DB0F0E94C30F0E94910FDF
:101444000E94BE0F0E94E00F38F00E94B70F0E9466
:10145400700F0E94BE0F3F5F10E0EB85E117D8F1DB
:10146400AC81BD818E819F810E94700F0E94910F7B
:10147400DF01CB010E94300D0E94DB0FEC81FD8166
:101484006E817F810E94B70F0E94A5110E94941063
:101494000E2F0E94E80FE02FE05DEC93E02FFF2772
:1014A400662777270E94CD10AC81BD818E819F81F4
:1014B4000E9457110E94B70F0E94A4120E940011AB
:1014C4000E94BE0FE12F1F5FE03039F60E94E80F43
:1014D400EEE2EC93C2CF0E94EF0F3197AA85A0836E
:1014E40030302CF43195A885B985EDE203C0A88588
:1014F400B985EBE2EC930E94EF0F0E94EF0F319756
:10150400BF01A32FEAE00E943B12E05DDB01EC93F4
:101514000E94EF0F3197BF01A32FEAE00E946512EA
:10152400E05DDB01EC93A885B985E0E0EC930E94D3
:10153400BE1260960895BA93AA93EF9761970E949A
:10154400B51210E0FE01E85AFF4F0190F081E02D42
:10155400E887F987FE01EA5AFF4F0190F081E02DF8
:10156400EE83FF83AE81BF81E0E0F0E0ED93FC9376
:10157400DE01A45ABF4F0E94470D3197E4912E2FEC
:10158400E03009F4E9C1E12FE03039F4253211F4F7
:1015940011E002C00E94F50FDEC1E130C1F4253232
:1015A40019F40E94F50FD6C112E0E0E0ED8B00E0E3
:1015B4002D3211F401E0CFC12B3219F4EBE2ED8BA3
:1015C400CAC1203219F4E0E2ED8BC5C102C0E23099
:1015D40039F450E013E0203311F40068BCC102C0B8
:1015E400E33091F4203310F02A3308F007C0AAE066
:1015F4005A9F502DE22FE0535E0FADC140E02E32D2
:1016040011F414E0A8C10FC0E43099F4203310F0B1
:101614002A3308F008C00062AAE04A9F402DE22F56
:10162400E0534E0F98C12C3619F4026015E093C1B3
:1016340003C0E53009F08FC1E22FE33659F40E946C
:10164400FC0F0E9403100E94FC0FA481AA930E9425
:101654000A1080C1E53411F0E53609F403C0E6361A
:1016640009F048C0FE017696EE87FF870E941010AD
:101674000E9485120E9417100E941C10AD85AA2397
:1016840032F0AD89AB3259F0A03281F017C00E941C
:101694001E100E9461100E941710EDE2ED8B07FFEF
:1016A40005C0ED89EA930E940A1008C0EE85FF8503
:1016B4003196EE87FF873197AD89A08305FF46E019
:1016C400263651F40E941E100E949A124A93AB8946
:1016D400BC890E94CA0609C00E941E100E949A1268
:1016E4004A932A93AC89BD8946DEFE0176960E9410
:1016F40023101EC0E33739F40E941C100E942B10E3
:101704000E9423100EC0E037C1F40E941C100E94F6
:101714002B10EE87FF87AE85BF850E949F081E2F82
:1017240008600F77403011F0411708F001C0142F02
:1017340040E0E0E0EC8B30E06DC0E43611F0E936D7
:1017440011F4046002C0E537A1F4EAE0EC8B01FF78
:1017540008C0E0E0FAEC6AE97BE30E9430101AE08A
:1017640022C0E0E1F7E260E070E00E94301015E092
:101774001AC0E83511F4086003C0E83709F0EAC07C
:10178400E0E1EC8B01FF08C0E0E0F0E060E070E134
:101794000E94301018E007C0E0E0F0E160E070E083
:1017A4000E94301014E0403011F00F7701C041E086
:1017B40001FF08C00E941C100E94101014960E9481
:1017C40085120FC002FF07C00E941C100E942B103C
:1017D4000E94231206C00E941C100E942B10662730
:1017E4007727EA87FB876C877D8702FF12C0AD8568
:1017F400AA2342F40E941E100E940E120E94171087
:10180400EDE2ED8BED89E03019F01F5F4F5F01C011
:101814000B7F342F00FD14C0151710F4351708F092
:101824000FC007FF08C002FF04C00B7F2D891150B1
:1018340001C020E301C020E20E94F50F5150ECCF1B
:10184400141790F4006102FF06C00E94351009F0DD
:10185400515011504150E0E3EA930E940A10503075
:1018640009F051504150ECCF312FEC89E030B9F4FC
:101874003030A1F003FF06C0EE85FF852591EE8789
:10188400FF8705C0AE85BF852D91AE87BF870E94B7
:10189400F50F503009F051503150EACF51C00E9439
:1018A40047100E9440122E2F2A3030F003FF02C04E
:1018B400295C01C0295A01C0205D04FD21C02133E7
:1018C40060F4A889B9898A899B89A130E0E0BE07C0
:1018D400E0E08E07E0E09E0709F40BC0431740F4F4
:1018E400531710F000FF01C010C020E207FF08C02A
:1018F40020E3006102FF04C00E94351009F051503A
:101904000E94F50F503009F0515031500E94471099
:101914000E9471120E941710EC89A889B9898A89DA
:101924009B89FF27662777270E9440120E94301068
:10193400E889F9896A897B890E94B11209F0AFCFDD
:1019440000FF08C0503031F05150E0E2EA930E94A9
:101954000A10F8CF10E00CCEAE81BF810E94811234
:101964000E94BC12EF966F960895FF92F82E269768
:101974000E94B7120E945010309719F4EFEFFFEF56
:1019840023C0DE0116960E940A128D010E94501097
:10199400EE83FF83E0E0E887E987DE011A960E9480
:1019A4000A120E948112FA93EA931A930A93E3E8C3
:1019B400F9E0FA93EA93DE011A96BDDD9F01AE8148
:1019C400BF81E0E0EC93F9010E94BE122A96FF90D9
:1019D4000895AA93E1E0F991F03310F0FA3308F096
:1019E400EE270895AA93E1E0F991F03229F0F93055
:1019F40010F0FE3008F0EE2708950E949F127B81BC
:101A04006A81F981E88177FB770F67FD7160972F11
:101A14009E5781F078F0983190F4AA27BB27882745
:101A240008948795B795A7959A95D1F7EA23FB2350
:101A3400682305C0E8947727EE27FF2766276F778A
:101A4400769508F4606877F9A991B991899199918B
:101A5400EA17FB076807790797FB08950E949F120E
:101A64000E9490120E94FF0C0E94951219F40E9489
:101A74008B1209C0E6F70E948B12A0E0B0E080E868
:101A84009FE30E94001124960895ED91FD913196F3
:101A9400FE93EE930895E0E0E0938C02E0938D02D0
:101AA4000895E0916002F091610260916202709188
:101AB4006302089520E030E0E1E0F0E05F01EBCF65
:101AC400A6E0A09FF001A19FF00DE257FD4FE20FA9
:101AD400F31FE081089521E030E0E1E0F0E05F01F0
:101AE400DACF22E030E0E1E0F0E05F01D4CF23E0A0
:101AF40030E0E1E0F0E05F01CECF24E030E0E1E06F
:101B0400F0E05F01C8CF25E030E0E1E0F0E05F0104
:101B1400C2CF0E949A1284E00E94B70C28960895BE
:101B2400E0E0DE01AA5CBE4FED93EC930895A8E6D5
:101B3400B2E00C949308DE01AA5CBE4F0D90BC91F8
:101B4400A02DAE17BF070895FE01EA5CFE4F019079
:101B5400F081E02DE859FD4F0895FE01EC5CFE4F45
:101B64000190F081E02D0E941612DE01A855BF4FAE
:101B74000895DE01AC5CBE4F88CFEA0FFB1FDE0187
:101B8400AE5CBE4F0D90BC91A02DAE0FBF1F08954B
:101B9400DE01AA5CBE4F0D90BC91A02D0895FE01FC
:101BA400EA5CFE4F0190F081E02D0895EA0FFB1FDF
:101BB400FA93EA930895E3E9F1E0FA93EA93089536
:101BC400FE01EC5CFE4F0190F081E02D0895DE01F2
:101BD400A855BF4FAE0FBF1F0895AE0FBF1FE0E063
:101BE400EC930895DE01AA5CBE4F4FCF31960E945C
:101BF4001612EDCFCDDF2A173B070895D0DF0E94E0
:101C04001612E5CFFE01E25DFE4F0190F081E02D5A
:101C14000895DE01A05DBE4F0D90BC91A02DF2DFB2
:101C2400EA1BFB0B0895BBDF0E941612DE01D0965F
:101C34000895FE01E85CFE4F0190F081E02D0895C7
:101C4400DE01AE5CBE4F0D90BC91A02D08950E94A4
:101C54001612DE01A655BF4FA9CFEEA5FFA598DF4A
:101C6400EA17FB07089541E050E099DF31970E949D
:101C74001612DE01D096AE0FBF1F0C948A078FDFB9
:101C840031960E941612DE01D096AE0FBF1F0C943F
:101C94008A070E945711DE01A05EBE4FED93FD93AB
:101CA4006D937C93FE01EC5DFE4FFA93EA930895E5
:101CB400E6E9F1E0FA93EA93FE01EC5DFE4F019050
:101CC400119061917081F00124CF69DF31970E94F6
:101CD4001612DE01D0966ACFFE01EA5DFE4FFA933A
:101CE400EA930895A8E00E94AC0859DF3296DE0119
:101CF400AC5CBE4FED93FC930895EEA5FFA5DE0109
:101D0400AC5CBE4F0D90BC91A02DEA17FB07089563
:101D140057DF32970E941612DE01D09647CF3FDF7D
:101D24000E941612DE01D29641CFEEA5FFA531978F
:101D34000E941612DE01D09650CFEEA5FFA5329771
:101D4400EEA7FFA708950E94A511DE01A05EBE4F75
:101D5400ED93FD936D937C930895E1E0F0E0DE0153
:101D6400A85CBE4FED93FC930895FE01EC5DFE4F1D
:101D7400FA93EA939DCFAAE00E94AC0810DF329652
:101D8400DE01AC5CBE4FED93FC930895F9013197ED
:101D94000E9416120895DE01A85CBE4F0D90BC91FE
:101DA400A02D11970895DE01A65CBE4F0D90BC9145
:101DB400A02D11970895E0E0DE01A65CBE4FED93DF
:101DC400EC93AECEE1E0F0E0DE01A65CBE4FED9315
:101DD400FC930895E4DE31970E941612DE01D0963A
:101DE400AE0FBF1F0C948A070E940711DE01A05E8C
:101DF400BE4FED93FD936D937C9308950E94A412BE
:101E04000E940011DE01A05EBE4FED93FD936D9321
:101E14007C930895FE01E05DFE4F0190F081E02D7A
:101E240008950E941612DE01A855BF4FBFCE319609
:101E3400DE01AA5CBE4FED93FC93089541E050E0AF
:101E4400AEDE31970E941612C2CEA9DECFCEFE01BD
:101E5400EC5DFE4F0190119061917081F00159CEBB
:101E64009EDE3197DECFDE01AC5CBE4F0D90BC919F
:101E7400A02D2A173B070895A3DE3297D2CF8FDE19
:101E8400E6CEE0E0EC93225030400895FE01EC5D94
:101E9400FE4FFA93EA938FCE82DE31970E94161298
:101EA40096CEBA93AA932497E0E0E883E983089551
:101EB400EE81FF81FA93EA930895E987FA876B87A5
:101EC4007C870895AE81BF811196AE83BF8311973D
:101ED4000895AA81BB818C819D810895EDECFCEC71
:101EE4006CEC7DE30E9457110895EA83FB836C83B5
:101EF4007D830895EA81FB816C817D81A985BA8502
:101F04008B859C850895E0E0F0E060E87FE3089528
:101F1400E0E0F0E060E271E40E9457110895A0E06F
:101F2400B0E080E09FE30E94071108950E9423120D
:101F34000E94CD100895A985BA858B859C85089546
:101F44000E94A4120E940011B8CFA885B9858A8581
:101F54009B850895E887F9876A877B870895D3DF8F
:101F6400EC87FD876E877F870895AC85BD858E8558
:101F74009F850895FADFCCCFEC87FD876E877F8736
:101F84000895EC85FD856E857F8508950E94E60899
:101F9400A3E0B0E00C945710A0E30E94C10888ECC1
:101FA40090E00197F1F70895AC81BD818E819F8106
:101FB400AFCFEC83FD836E837F830895EC81FD8135
:101FC4006E817F81D2DF0E94EA110895A885B985C8
:101FD4001196A887B98711970895E885F9853196F0
:101FE400E887F98708952A93AF81B885E985FA854A
:101FF40009950895FE01E65AFF4F0190F081E02D06
:1020040008953497DE01A65ABF4FED93FC930895CB
:10201400AF81B885E985FA8509950895DE01A65A48
:10202400BF4F0D90BC91A02D0895EA87FB876C8764
:102034007D870895DFDFE5CFEA85FB856C857D85A7
:102044000895EE87FF87AE85BF850E9493081E2FF3
:102054000895E4DF14960E9481120895E88BF98BA9
:102064006A8B7B8B08950B7FED89EA93DE01A95A75
:10207400BF4F0D90BC91A02DFE01E75AFF4F019078
:10208400F081E02D099550300895E889F9896A892D
:102094007B89AA85BB858C859D850895DE011C9668
:1020A4000E940A120E9481120895109639F080ED60
:1020B40097E00197F1F7A8951197C9F7089530971C
:1020C4006040704009F070580895552342F4503828
:1020D40011F4E0FF04C03196691F791F6BF050E8DA
:1020E400572711F45F93CFC05F3F31F0660F000CA8
:1020F40057956795752F08955F9300200AF0CFC018
:10210400C8C050E8192E1522880F991F9527550F1E
:10211400879550E8072E0522660F771F7527550F00
:1021240067950895689401C0E8945F93F2DF70386E
:1021340018F07F3F08F4A7C056E1571BAAF4519545
:1021440058300EF4593030F0EFEFFFEF6FEF7FE7C8
:1021540077F91AC077275523B9F0EE0FFF1F661FD2
:10216400771F5A95D1F710C07727583028F0EF2FF2
:10217400F62F672F5850F9CF552331F07695679590
:10218400F795E7955A95D1F700200AF445D15F9168
:102194000895689401C0E894309760407040B1F0AD
:1021A400002426F0772312F4009436D1172E7EE112
:1021B400112032F07A95EE0FFF1F661F111CF9CF24
:1021C400EF2FF62F612D5F938ADF5F9108954F9370
:1021D400AF01FD01DA01AB01BC01CA01402D012CA4
:1021E400142E4F910895EA0FFB1F681F0895E09580
:1021F400F0956095EF5FFF4F6F4F08955F9381DF18
:10220400903871F150E8152604C05F937ADF903856
:1022140039F1703821F1572F591B2BF112F4D7DF04
:10222400FACF583118F0AA27BB278827583028F04E
:10223400AB2FB82F88275850F9CF552329F086950E
:10224400B795A7955A95D9F7502D512572F0CBDF44
:1022540038F46795F795E795739513F420C0B7DFC5
:102264003EDF5F910895D8F7FBCFEA1BFB0B680BA9
:1022740051F010F40094BBDF662392F3EE0FFF1FBE
:10228400661F7A95CBF7EE27FF27662777275F919E
:102294000895EFEFFFEF6FE77FEF5F910895EFEFA2
:1022A400FFEF6FE77FE75F9108955F932ADF703850
:1022B40051F3903841F301240894791F23F41CF35B
:1022C40000203AF3ECCF0F921F932F933F934F9339
:1022D400112722279927689FA0018F9F302D410D38
:1022E400591F6B9F300D411D591F8E9F27D0BF9FD3
:1022F40025D06A9F23D0BE9F1DD0AF9F1BD0AE9F19
:10230400110D291F391F491F591FE32FF42F652F62
:10231400522F4F913F912F911F910F9066232AF0D6
:10232400550FEE1FFF1F661F02C073954BF2CDDEE3
:102334005F910895100D211D391F02C0200D311D1C
:10234400491F591F08955F93DCDE703821F4112072
:102354000AF49FCFA4CF903809F495CF01240894B0
:10236400970B1BF4D4F30020F3CF792F1F932F93F3
:102374003F934F93112411272227332744275527AE
:1023840090E2AE17BF078607410730F0AE1BBF0BC4
:10239400860B410B089401C08894551F221F331FDC
:1023A400111CAA1FBB1F881F441F9A9551F7F901DE
:1023B400612D4F913F912F911F91662332F0550F5C
:1023C400EE1FFF1F661F7A9543F27FDE5F9108952B
:1023D40099239AF0772342F0971748F029F4AE171F
:1023E400BF07860720F031F0989488940895989454
:1023F400089408951894889408957723C2F797173A
:1024040098F3A9F7EA17FB07680788F399F3ECCF69
:102414000024AF0DB01D0895F09560957095E19579
:10242400FF4F6F4F7F4F0895EE0FFF1FEE0FFF1FFB
:10243400EE0FFF1F0895FE2FFF0FFF0B6F2F7F2F4F
:1024440008956F2F660F660B762F0895EA17E1E063
:1024540009F0EE270895002498E0AA0F001C0E1A34
:1024640010F40E0E01C0A1609A95B9F7EA2FA02DC1
:10247400089539D0F0DF0EF4E19508953F934F931A
:102484005F93002411244427552730E2AA0FBB1F71
:10249400881F991F001C111C441F551F0E1A1F0A68
:1024A400460B570B28F40E0E1F1E461F571F01C064
:1024B400A1603A9559F7FD01BC01D001CA015F91B1
:1024C4004F913F910895E894A7FF02C0A1956894A5
:1024D400E7FDE195C0DFEA2F0EF4E1950895CEDF24
:1024E400FD01BC010895E894E7FF02C0E1956894FA
:1024F400A7FF04C0A19500F8039400FA0895ED9194
:10250400FC9111970895ED91FD916D917C91139734
:102514000895E881F9816A817B810895A881B98150
:102524008A819B810895E883F9836A837B83089574
:102534007A936A93FA93EA9308959A938A93BA934F
:10254400AA930895182E862F612D192E972F712D79
:102554001B2EBF2FF12D1A2EAE2FE12D089530978B
:102564006040704008955A934A933A932A931A9379
:102574000A9308955D814C813B812A8119810881E8
:102584000895AC0FBD1F05900D920197E1F70895D2
:00000001FF
